:040000003C011000AF
:0400040034210000A3
:040008000001D02003
:04000C003C011000A3
:04001000342101187E
:040014000001D820EF
:040018003C01100097
:04001C003421FFFC90
:040020000001E820D3
:040024002010000D9B
:040028002011000A99
:04002C003C01100083
:04003000342120D087
:040034000001902017
:040038003C01100077
:04003C00342120D477
:040040000001982003
:040044003C0110006B
:04004800342100005F
:04004C00000120206F
:040050003C0110005F
:04005400342120D063
:04005800000128205B
:04005C000C10009EE6
:04006000081000196B
:040064000318C02697
:040068003C01000255
:04006C00342100003B
:040070000001C820A3
:040074003C0110003B
:04007800342121000E
:04007C00000120203F
:040080000C1000332D
:040084000C100071EB
:040088008E4800009E
:04008C008E69000079
:04009000AE68000056
:04009400231800012C
:040098001719000331
:04009C000318C0265F
:0400A0000C10004AF6
:0400A400081000221E
:0400A8001100FFF74D
:0400AC001109FFF641
:0400B000200B000819
:0400B400110B000329
:0400B80000082020FC
:0400BC000C100052D2
:0400C00008100032F2
:0400C4000C100063B9
:0400C80008100022FA
:0400CC00AFBF0000C2
:0400D0002001000407
:0400D40003A1E8227A
:0400D80000044020C0
:0400DC008D0400008F
:0400E0001080000389
:0400E4000C100052AA
:0400E80021080004E7
:0400EC0008100037C1
:0400F00023BD000428
:0400F4008FBF0000BA
:0400F80003E0000819
:0400FC00AFBF000092
:0401000020010004D6
:0401040003A1E82249
:040108003C011000A6
:04010C00342160003A
:0401100000012020AA
:040114000C10003398
:040118000C10007156
:04011C0023BD0004FB
:040120008FBF00008D
:0401240003E00008EC
:040128008F480000FC
:04012C0011000001BD
:040130000810004F64
:040134002008005F40
:04013800081000505B
:04013C000108402650
:04014000AF480000C4
:0401440003E00008CC
:04014800AFBF000045
:04014C00200100048A
:0401500003A1E822FD
:04015400AF400000B8
:0401580010900007FC
:04015C0010910004FA
:04016000AF440000A8
:04016400235A000416
:04016800135B000124
:04016C000810006017
:040170000C10007CF3
:04017400081000600F
:040178002344000814
:04017C000C10003F24
:0401800023BD000497
:040184008FBF000029
:0401880003E0000888
:04018C00AFBF000001
:040190002001000446
:0401940003A1E822B9
:040198002001011031
:04019C000361D82201
:0401A000135B0004E9
:0401A400AF40000068
:0401A800200100042E
:0401AC000341D02219
:0401B000AF4000005C
:0401B400237B011098
:0401B80023BD00045F
:0401BC008FBF0000F1
:0401C00003E0000850
:0401C400AFBF0000C9
:0401C800200100040E
:0401CC0003A1E82281
:0401D0000C10007C93
:0401D40020040023E0
:0401D8000C100052B5
:0401DC0020040020DB
:0401E0000C100052AD
:0401E40023BD000433
:0401E8008FBF0000C5
:0401EC0003E0000824
:0401F000AFBF00009D
:0401F40020010004E2
:0401F80003A1E82255
:0401FC001372000377
:04020000001BD020EF
:04020400237B01183F
:040208000810008753
:04020C000C10008A48
:0402100020010118B0
:040214000241D022B1
:040218000012D820D8
:04021C0023BD0004FA
:040220008FBF00008C
:0402240003E00008EB
:04022800AFBF000064
:04022C0020010004A9
:0402300003A1E8221C
:040234003C01100079
:04023800342100006D
:04023C00000140205D
:040240003C0110006D
:040244003421011848
:040248000001482049
:04024C008D2A0000F7
:04025000AD0A0000F3
:040254002108000479
:040258002129000454
:04025C001532FFFB5D
:040260000008202052
:040264000009282045
:040268000C10009ED8
:04026C0023BD0004AA
:040270008FBF00003C
:0402740003E000089B
:04027800AFBF000014
:04027C002001000459
:0402800003A1E822CC
:04028400AC8000004A
:0402880020840004CA
:04028C001485FFFDD9
:0402900023BD000486
:040294008FBF000018
:0402980003E0000877
:00000001FF
